{
  "contractName": "ERC721Enumerable",
  "abi": [
    {
      "anonymous": false,
      "inputs": [
        {
          "indexed": true,
          "internalType": "address",
          "name": "owner",
          "type": "address"
        },
        {
          "indexed": true,
          "internalType": "address",
          "name": "approved",
          "type": "address"
        },
        {
          "indexed": true,
          "internalType": "uint256",
          "name": "tokenId",
          "type": "uint256"
        }
      ],
      "name": "Approval",
      "type": "event"
    },
    {
      "anonymous": false,
      "inputs": [
        {
          "indexed": true,
          "internalType": "address",
          "name": "from",
          "type": "address"
        },
        {
          "indexed": true,
          "internalType": "address",
          "name": "to",
          "type": "address"
        },
        {
          "indexed": true,
          "internalType": "uint256",
          "name": "tokenId",
          "type": "uint256"
        }
      ],
      "name": "Transfer",
      "type": "event"
    },
    {
      "inputs": [
        {
          "internalType": "address",
          "name": "_to",
          "type": "address"
        },
        {
          "internalType": "uint256",
          "name": "tokenId",
          "type": "uint256"
        }
      ],
      "name": "approve",
      "outputs": [],
      "stateMutability": "nonpayable",
      "type": "function"
    },
    {
      "inputs": [
        {
          "internalType": "address",
          "name": "_owner",
          "type": "address"
        }
      ],
      "name": "balanceOf",
      "outputs": [
        {
          "internalType": "uint256",
          "name": "",
          "type": "uint256"
        }
      ],
      "stateMutability": "view",
      "type": "function"
    },
    {
      "inputs": [
        {
          "internalType": "uint256",
          "name": "_tokenId",
          "type": "uint256"
        }
      ],
      "name": "ownerOf",
      "outputs": [
        {
          "internalType": "address",
          "name": "",
          "type": "address"
        }
      ],
      "stateMutability": "view",
      "type": "function"
    },
    {
      "inputs": [
        {
          "internalType": "address",
          "name": "_from",
          "type": "address"
        },
        {
          "internalType": "address",
          "name": "_to",
          "type": "address"
        },
        {
          "internalType": "uint256",
          "name": "_tokenId",
          "type": "uint256"
        }
      ],
      "name": "transferFrom",
      "outputs": [],
      "stateMutability": "nonpayable",
      "type": "function"
    },
    {
      "inputs": [
        {
          "internalType": "uint256",
          "name": "_index",
          "type": "uint256"
        }
      ],
      "name": "tokenByIndex",
      "outputs": [
        {
          "internalType": "uint256",
          "name": "",
          "type": "uint256"
        }
      ],
      "stateMutability": "view",
      "type": "function"
    },
    {
      "inputs": [
        {
          "internalType": "address",
          "name": "_owner",
          "type": "address"
        },
        {
          "internalType": "uint256",
          "name": "_index",
          "type": "uint256"
        }
      ],
      "name": "tokenOfOwnerByIndex",
      "outputs": [
        {
          "internalType": "uint256",
          "name": "",
          "type": "uint256"
        }
      ],
      "stateMutability": "view",
      "type": "function"
    },
    {
      "inputs": [],
      "name": "totalSupply",
      "outputs": [
        {
          "internalType": "uint256",
          "name": "",
          "type": "uint256"
        }
      ],
      "stateMutability": "view",
      "type": "function"
    }
  ],
  "bytecode": "0x608060405234801561001057600080fd5b50611032806100206000396000f3fe608060405234801561001057600080fd5b506004361061007d5760003560e01c80632f745c591161005b5780632f745c59146100d85780634f6ccce7146101085780636352211e1461013857806370a08231146101685761007d565b8063095ea7b31461008257806318160ddd1461009e57806323b872dd146100bc575b600080fd5b61009c600480360381019061009791906109a0565b610198565b005b6100a6610318565b6040516100b391906109ef565b60405180910390f35b6100d660048036038101906100d19190610a0a565b610325565b005b6100f260048036038101906100ed91906109a0565b610335565b6040516100ff91906109ef565b60405180910390f35b610122600480360381019061011d9190610a5d565b6103e5565b60405161012f91906109ef565b60405180910390f35b610152600480360381019061014d9190610a5d565b61044b565b60405161015f9190610a99565b60405180910390f35b610182600480360381019061017d9190610ab4565b6104fb565b60405161018f91906109ef565b60405180910390f35b60006101a38261044b565b90508073ffffffffffffffffffffffffffffffffffffffff168373ffffffffffffffffffffffffffffffffffffffff1603610213576040517f08c379a000000000000000000000000000000000000000000000000000000000815260040161020a90610b64565b60405180910390fd5b8073ffffffffffffffffffffffffffffffffffffffff163373ffffffffffffffffffffffffffffffffffffffff1614610281576040517f08c379a000000000000000000000000000000000000000000000000000000000815260040161027890610bf6565b60405180910390fd5b8273ffffffffffffffffffffffffffffffffffffffff166002600084815260200190815260200160002060009054906101000a90505050818373ffffffffffffffffffffffffffffffffffffffff168273ffffffffffffffffffffffffffffffffffffffff167f8c5be1e5ebec7d5bd14f71427d1e84f3dd0314c0f7b2291e5b200ac8c7c3b92560405160405180910390a4505050565b6000600380549050905090565b6103308383836105b2565b505050565b6000610340836104fb565b8210610381576040517f08c379a000000000000000000000000000000000000000000000000000000000815260040161037890610c62565b60405180910390fd5b600560008473ffffffffffffffffffffffffffffffffffffffff1673ffffffffffffffffffffffffffffffffffffffff16815260200190815260200160002082815481106103d2576103d1610c82565b5b9060005260206000200154905092915050565b60006103ef610318565b8210610430576040517f08c379a000000000000000000000000000000000000000000000000000000000815260040161042790610cfd565b60405180910390fd5b60046000838152602001908152602001600020549050919050565b60008060008084815260200190815260200160002060009054906101000a900473ffffffffffffffffffffffffffffffffffffffff169050600073ffffffffffffffffffffffffffffffffffffffff168173ffffffffffffffffffffffffffffffffffffffff16036104f2576040517f08c379a00000000000000000000000000000000000000000000000000000000081526004016104e990610d8f565b60405180910390fd5b80915050919050565b60008073ffffffffffffffffffffffffffffffffffffffff168273ffffffffffffffffffffffffffffffffffffffff160361056b576040517f08c379a000000000000000000000000000000000000000000000000000000000815260040161056290610d8f565b60405180910390fd5b600160008373ffffffffffffffffffffffffffffffffffffffff1673ffffffffffffffffffffffffffffffffffffffff168152602001908152602001600020549050919050565b600073ffffffffffffffffffffffffffffffffffffffff168273ffffffffffffffffffffffffffffffffffffffff1603610621576040517f08c379a000000000000000000000000000000000000000000000000000000000815260040161061890610e21565b60405180910390fd5b61062a8161044b565b73ffffffffffffffffffffffffffffffffffffffff168373ffffffffffffffffffffffffffffffffffffffff1614610697576040517f08c379a000000000000000000000000000000000000000000000000000000000815260040161068e90610ed9565b60405180910390fd5b6106a13382610807565b6106aa57600080fd5b60018060008573ffffffffffffffffffffffffffffffffffffffff1673ffffffffffffffffffffffffffffffffffffffff16815260200190815260200160002060008282546106f99190610f28565b9250508190555060018060008473ffffffffffffffffffffffffffffffffffffffff1673ffffffffffffffffffffffffffffffffffffffff168152602001908152602001600020600082825461074f9190610f5c565b925050819055508160008083815260200190815260200160002060006101000a81548173ffffffffffffffffffffffffffffffffffffffff021916908373ffffffffffffffffffffffffffffffffffffffff160217905550808273ffffffffffffffffffffffffffffffffffffffff168473ffffffffffffffffffffffffffffffffffffffff167fddf252ad1be2c89b69c2b068fc378daa952ba7f163c4a11628f55a4df523b3ef60405160405180910390a4505050565b600061081282610896565b610851576040517f08c379a000000000000000000000000000000000000000000000000000000000815260040161084890610fdc565b60405180910390fd5b600061085c8361044b565b90508073ffffffffffffffffffffffffffffffffffffffff168473ffffffffffffffffffffffffffffffffffffffff161491505092915050565b60008060008084815260200190815260200160002060009054906101000a900473ffffffffffffffffffffffffffffffffffffffff169050600073ffffffffffffffffffffffffffffffffffffffff168173ffffffffffffffffffffffffffffffffffffffff161415915050919050565b600080fd5b600073ffffffffffffffffffffffffffffffffffffffff82169050919050565b60006109378261090c565b9050919050565b6109478161092c565b811461095257600080fd5b50565b6000813590506109648161093e565b92915050565b6000819050919050565b61097d8161096a565b811461098857600080fd5b50565b60008135905061099a81610974565b92915050565b600080604083850312156109b7576109b6610907565b5b60006109c585828601610955565b92505060206109d68582860161098b565b9150509250929050565b6109e98161096a565b82525050565b6000602082019050610a0460008301846109e0565b92915050565b600080600060608486031215610a2357610a22610907565b5b6000610a3186828701610955565b9350506020610a4286828701610955565b9250506040610a538682870161098b565b9150509250925092565b600060208284031215610a7357610a72610907565b5b6000610a818482850161098b565b91505092915050565b610a938161092c565b82525050565b6000602082019050610aae6000830184610a8a565b92915050565b600060208284031215610aca57610ac9610907565b5b6000610ad884828501610955565b91505092915050565b600082825260208201905092915050565b7f4572726f72202d20617070726f76616c20746f2063757272656e74206f776e6560008201527f7200000000000000000000000000000000000000000000000000000000000000602082015250565b6000610b4e602183610ae1565b9150610b5982610af2565b604082019050919050565b60006020820190508181036000830152610b7d81610b41565b9050919050565b7f43757272656e742063616c6c6572206973206e6f7420746865206f776e65722060008201527f6f662074686520746f6b656e0000000000000000000000000000000000000000602082015250565b6000610be0602c83610ae1565b9150610beb82610b84565b604082019050919050565b60006020820190508181036000830152610c0f81610bd3565b9050919050565b7f6f776e657220696e646578206973206f7574206f6620626f756e647300000000600082015250565b6000610c4c601c83610ae1565b9150610c5782610c16565b602082019050919050565b60006020820190508181036000830152610c7b81610c3f565b9050919050565b7f4e487b7100000000000000000000000000000000000000000000000000000000600052603260045260246000fd5b7f676c6f62616c20696e646578206973206f7574206f6620626f756e6473000000600082015250565b6000610ce7601d83610ae1565b9150610cf282610cb1565b602082019050919050565b60006020820190508181036000830152610d1681610cda565b9050919050565b7f4552433732313a204f776e657220717565727920666f72206e6f6e2d6578697360008201527f74616e7420746f6b656e00000000000000000000000000000000000000000000602082015250565b6000610d79602a83610ae1565b9150610d8482610d1d565b604082019050919050565b60006020820190508181036000830152610da881610d6c565b9050919050565b7f4572726f72202d20455243373231205472616e7366657220746f20746865207a60008201527f65726f2061646472657373000000000000000000000000000000000000000000602082015250565b6000610e0b602b83610ae1565b9150610e1682610daf565b604082019050919050565b60006020820190508181036000830152610e3a81610dfe565b9050919050565b7f4572726f72202d2045524337323120547279696e6720746f207472616e73666560008201527f72206120746f6b656e20746865206164647265737320646f6573206e6f74206f60208201527f776e000000000000000000000000000000000000000000000000000000000000604082015250565b6000610ec3604283610ae1565b9150610ece82610e41565b606082019050919050565b60006020820190508181036000830152610ef281610eb6565b9050919050565b7f4e487b7100000000000000000000000000000000000000000000000000000000600052601160045260246000fd5b6000610f338261096a565b9150610f3e8361096a565b9250828203905081811115610f5657610f55610ef9565b5b92915050565b6000610f678261096a565b9150610f728361096a565b9250828201905080821115610f8a57610f89610ef9565b5b92915050565b7f746f6b656e20646f6573206e6f74206578697374000000000000000000000000600082015250565b6000610fc6601483610ae1565b9150610fd182610f90565b602082019050919050565b60006020820190508181036000830152610ff581610fb9565b905091905056fea26469706673582212208d779305dd730e6021bef262267617425b7a5f61e2913eadb7a8fca8628f811c64736f6c63430008110033",
  "immutableReferences": {},
  "source": "// SPDX-License-Identifier: MIT\npragma solidity ^0.8.0;\n\nimport './ERC721.sol';\n\ncontract ERC721Enumerable is ERC721 {\n\n    uint256[] private _allTokens;\n\n    // mapping from tokenId to position in _allTokens array\n    mapping(uint256 => uint256) private _allTokensIndex;\n\n    // mapping of owner => list of all owned token ids\n    mapping(address => uint256[]) private _ownedTokens;\n\n    // mapping from token ID to index of the owner tokens list\n    mapping(uint256 => uint256) _ownedTokenIndex;\n \n    function _mint(address to, uint256 tokenId) internal override(ERC721) {\n        super._mint(to, tokenId);\n        // 2 things! \n        // A. Add tokens to the owner;\n        // B. All tokens to our totalsupply - to all Tokens\n        _addTokensToAllTokenEnumeration(tokenId);\n        _addTokenstoOwnerEnumeration(to, tokenId);\n    }\n\n    function tokenByIndex(uint256 _index) external view returns (uint256){\n        require(_index < totalSupply(), 'global index is out of bounds');\n        return _allTokensIndex[_index];\n    }\n\n    function tokenOfOwnerByIndex(address _owner, uint256 _index) external view returns (uint256){\n        require(_index < balanceOf(_owner), 'owner index is out of bounds');\n        return _ownedTokens[_owner][_index];\n    }\n\n    // return the total supply of the _allTokens array\n    function totalSupply() public view returns (uint256) {\n        return _allTokens.length;\n    }\n\n    // add tokens to the _alltokens array and set the position of the token in the array\n    function _addTokensToAllTokenEnumeration(uint256 tokenId) private {\n        _allTokensIndex[tokenId] = _allTokens.length;\n        _allTokens.push(tokenId);\n    }\n\n    function _addTokenstoOwnerEnumeration(address to, uint256 tokenId) private {\n        // 1. Add address and token id to the _ownedTokens\n        // 2. ownedTokensIdex tokenId set to the address of ownedTokens position\n        // 3. execute this function with minting \n         _ownedTokenIndex[tokenId] = _ownedTokens[to].length;\n        _ownedTokens[to].push(tokenId);\n    }\n}",
  "sourcePath": "/Users/lucien/Documents/Projects/Web3/nft-market-place/src/contracts/ERC721Enumerable.sol",
  "compiler": {
    "name": "solc",
    "version": "0.8.17+commit.8df45f5f.Emscripten.clang"
  },
  "schemaVersion": "3.4.9",
  "updatedAt": "2022-10-18T23:39:15.580Z",
  "devdoc": {
    "kind": "dev",
    "methods": {},
    "version": 1
  },
  "userdoc": {
    "kind": "user",
    "methods": {},
    "version": 1
  }
}