{
  "contractName": "ERC721",
  "abi": [
    {
      "anonymous": false,
      "inputs": [
        {
          "indexed": true,
          "internalType": "address",
          "name": "owner",
          "type": "address"
        },
        {
          "indexed": true,
          "internalType": "address",
          "name": "approved",
          "type": "address"
        },
        {
          "indexed": true,
          "internalType": "uint256",
          "name": "tokenId",
          "type": "uint256"
        }
      ],
      "name": "Approval",
      "type": "event"
    },
    {
      "anonymous": false,
      "inputs": [
        {
          "indexed": true,
          "internalType": "address",
          "name": "from",
          "type": "address"
        },
        {
          "indexed": true,
          "internalType": "address",
          "name": "to",
          "type": "address"
        },
        {
          "indexed": true,
          "internalType": "uint256",
          "name": "tokenId",
          "type": "uint256"
        }
      ],
      "name": "Transfer",
      "type": "event"
    },
    {
      "inputs": [
        {
          "internalType": "address",
          "name": "_owner",
          "type": "address"
        }
      ],
      "name": "balanceOf",
      "outputs": [
        {
          "internalType": "uint256",
          "name": "",
          "type": "uint256"
        }
      ],
      "stateMutability": "view",
      "type": "function"
    },
    {
      "inputs": [
        {
          "internalType": "uint256",
          "name": "_tokenId",
          "type": "uint256"
        }
      ],
      "name": "ownerOf",
      "outputs": [
        {
          "internalType": "address",
          "name": "",
          "type": "address"
        }
      ],
      "stateMutability": "view",
      "type": "function"
    },
    {
      "inputs": [
        {
          "internalType": "address",
          "name": "_from",
          "type": "address"
        },
        {
          "internalType": "address",
          "name": "_to",
          "type": "address"
        },
        {
          "internalType": "uint256",
          "name": "_tokenId",
          "type": "uint256"
        }
      ],
      "name": "transferFrom",
      "outputs": [],
      "stateMutability": "nonpayable",
      "type": "function"
    },
    {
      "inputs": [
        {
          "internalType": "address",
          "name": "_to",
          "type": "address"
        },
        {
          "internalType": "uint256",
          "name": "tokenId",
          "type": "uint256"
        }
      ],
      "name": "approve",
      "outputs": [],
      "stateMutability": "nonpayable",
      "type": "function"
    }
  ],
  "bytecode": "0x608060405234801561001057600080fd5b50610d59806100206000396000f3fe608060405234801561001057600080fd5b506004361061004c5760003560e01c8063095ea7b31461005157806323b872dd1461006d5780636352211e1461008957806370a08231146100b9575b600080fd5b61006b600480360381019061006691906107ce565b6100e9565b005b6100876004803603810190610082919061080e565b610269565b005b6100a3600480360381019061009e9190610861565b610279565b6040516100b0919061089d565b60405180910390f35b6100d360048036038101906100ce91906108b8565b610329565b6040516100e091906108f4565b60405180910390f35b60006100f482610279565b90508073ffffffffffffffffffffffffffffffffffffffff168373ffffffffffffffffffffffffffffffffffffffff1603610164576040517f08c379a000000000000000000000000000000000000000000000000000000000815260040161015b90610992565b60405180910390fd5b8073ffffffffffffffffffffffffffffffffffffffff163373ffffffffffffffffffffffffffffffffffffffff16146101d2576040517f08c379a00000000000000000000000000000000000000000000000000000000081526004016101c990610a24565b60405180910390fd5b8273ffffffffffffffffffffffffffffffffffffffff166002600084815260200190815260200160002060009054906101000a90505050818373ffffffffffffffffffffffffffffffffffffffff168273ffffffffffffffffffffffffffffffffffffffff167f8c5be1e5ebec7d5bd14f71427d1e84f3dd0314c0f7b2291e5b200ac8c7c3b92560405160405180910390a4505050565b6102748383836103e0565b505050565b60008060008084815260200190815260200160002060009054906101000a900473ffffffffffffffffffffffffffffffffffffffff169050600073ffffffffffffffffffffffffffffffffffffffff168173ffffffffffffffffffffffffffffffffffffffff1603610320576040517f08c379a000000000000000000000000000000000000000000000000000000000815260040161031790610ab6565b60405180910390fd5b80915050919050565b60008073ffffffffffffffffffffffffffffffffffffffff168273ffffffffffffffffffffffffffffffffffffffff1603610399576040517f08c379a000000000000000000000000000000000000000000000000000000000815260040161039090610ab6565b60405180910390fd5b600160008373ffffffffffffffffffffffffffffffffffffffff1673ffffffffffffffffffffffffffffffffffffffff168152602001908152602001600020549050919050565b600073ffffffffffffffffffffffffffffffffffffffff168273ffffffffffffffffffffffffffffffffffffffff160361044f576040517f08c379a000000000000000000000000000000000000000000000000000000000815260040161044690610b48565b60405180910390fd5b61045881610279565b73ffffffffffffffffffffffffffffffffffffffff168373ffffffffffffffffffffffffffffffffffffffff16146104c5576040517f08c379a00000000000000000000000000000000000000000000000000000000081526004016104bc90610c00565b60405180910390fd5b6104cf3382610635565b6104d857600080fd5b60018060008573ffffffffffffffffffffffffffffffffffffffff1673ffffffffffffffffffffffffffffffffffffffff16815260200190815260200160002060008282546105279190610c4f565b9250508190555060018060008473ffffffffffffffffffffffffffffffffffffffff1673ffffffffffffffffffffffffffffffffffffffff168152602001908152602001600020600082825461057d9190610c83565b925050819055508160008083815260200190815260200160002060006101000a81548173ffffffffffffffffffffffffffffffffffffffff021916908373ffffffffffffffffffffffffffffffffffffffff160217905550808273ffffffffffffffffffffffffffffffffffffffff168473ffffffffffffffffffffffffffffffffffffffff167fddf252ad1be2c89b69c2b068fc378daa952ba7f163c4a11628f55a4df523b3ef60405160405180910390a4505050565b6000610640826106c4565b61067f576040517f08c379a000000000000000000000000000000000000000000000000000000000815260040161067690610d03565b60405180910390fd5b600061068a83610279565b90508073ffffffffffffffffffffffffffffffffffffffff168473ffffffffffffffffffffffffffffffffffffffff161491505092915050565b60008060008084815260200190815260200160002060009054906101000a900473ffffffffffffffffffffffffffffffffffffffff169050600073ffffffffffffffffffffffffffffffffffffffff168173ffffffffffffffffffffffffffffffffffffffff161415915050919050565b600080fd5b600073ffffffffffffffffffffffffffffffffffffffff82169050919050565b60006107658261073a565b9050919050565b6107758161075a565b811461078057600080fd5b50565b6000813590506107928161076c565b92915050565b6000819050919050565b6107ab81610798565b81146107b657600080fd5b50565b6000813590506107c8816107a2565b92915050565b600080604083850312156107e5576107e4610735565b5b60006107f385828601610783565b9250506020610804858286016107b9565b9150509250929050565b60008060006060848603121561082757610826610735565b5b600061083586828701610783565b935050602061084686828701610783565b9250506040610857868287016107b9565b9150509250925092565b60006020828403121561087757610876610735565b5b6000610885848285016107b9565b91505092915050565b6108978161075a565b82525050565b60006020820190506108b2600083018461088e565b92915050565b6000602082840312156108ce576108cd610735565b5b60006108dc84828501610783565b91505092915050565b6108ee81610798565b82525050565b600060208201905061090960008301846108e5565b92915050565b600082825260208201905092915050565b7f4572726f72202d20617070726f76616c20746f2063757272656e74206f776e6560008201527f7200000000000000000000000000000000000000000000000000000000000000602082015250565b600061097c60218361090f565b915061098782610920565b604082019050919050565b600060208201905081810360008301526109ab8161096f565b9050919050565b7f43757272656e742063616c6c6572206973206e6f7420746865206f776e65722060008201527f6f662074686520746f6b656e0000000000000000000000000000000000000000602082015250565b6000610a0e602c8361090f565b9150610a19826109b2565b604082019050919050565b60006020820190508181036000830152610a3d81610a01565b9050919050565b7f4552433732313a204f776e657220717565727920666f72206e6f6e2d6578697360008201527f74616e7420746f6b656e00000000000000000000000000000000000000000000602082015250565b6000610aa0602a8361090f565b9150610aab82610a44565b604082019050919050565b60006020820190508181036000830152610acf81610a93565b9050919050565b7f4572726f72202d20455243373231205472616e7366657220746f20746865207a60008201527f65726f2061646472657373000000000000000000000000000000000000000000602082015250565b6000610b32602b8361090f565b9150610b3d82610ad6565b604082019050919050565b60006020820190508181036000830152610b6181610b25565b9050919050565b7f4572726f72202d2045524337323120547279696e6720746f207472616e73666560008201527f72206120746f6b656e20746865206164647265737320646f6573206e6f74206f60208201527f776e000000000000000000000000000000000000000000000000000000000000604082015250565b6000610bea60428361090f565b9150610bf582610b68565b606082019050919050565b60006020820190508181036000830152610c1981610bdd565b9050919050565b7f4e487b7100000000000000000000000000000000000000000000000000000000600052601160045260246000fd5b6000610c5a82610798565b9150610c6583610798565b9250828203905081811115610c7d57610c7c610c20565b5b92915050565b6000610c8e82610798565b9150610c9983610798565b9250828201905080821115610cb157610cb0610c20565b5b92915050565b7f746f6b656e20646f6573206e6f74206578697374000000000000000000000000600082015250565b6000610ced60148361090f565b9150610cf882610cb7565b602082019050919050565b60006020820190508181036000830152610d1c81610ce0565b905091905056fea2646970667358221220ea6321288536b4f81151a3e58b8be7e86a6eaa7059d730ca48973ac2ad49639a64736f6c63430008110033",
  "immutableReferences": {},
  "source": "// SPDX-License-Identifier: MIT\npragma solidity ^0.8.0;\n\n    /*\n\n    building out the minting function\n        a. nft to point to an address\n        b. keep track of the token IDs\n        c. keep tract of token owner addresses to token ids\n        d. keep track of how many tokens an owner address has\n        e. create an event that emits a transfer log - contract address, where it is being minted to, the id\n\n    */\n\ncontract ERC721 {\n\n    event Transfer(\n        address indexed from,\n        address indexed to,\n        uint256 indexed tokenId);\n    \n    event Approval(\n        address indexed owner,\n        address indexed approved,\n        uint256 indexed tokenId);\n\n    // mapping in solidity creates a hash table of key pair values\n\n    // Mapping from token id to the owner\n    mapping(uint => address) private _tokenOwner;\n\n    //Mapping from owner to number of owned tokens\n    mapping(address => uint) private _ownedTokensCount;\n\n    // Mapping from token id to approved addresses\n    mapping(uint256 => address) private _tokenApprovals;\n\n    // Count all NFTs assigned to an owner\n    function balanceOf(address _owner) public view returns(uint256) {\n        require(_owner != address(0), 'ERC721: Owner query for non-existant token');\n        return _ownedTokensCount[_owner];\n    }\n\n    // Find the Owner of a token\n    function ownerOf(uint256 _tokenId) public view returns(address){\n        address owner = _tokenOwner[_tokenId];\n        require(owner != address(0), 'ERC721: Owner query for non-existant token');\n        return owner;\n    }\n\n    function _exists(uint tokenId) internal view returns(bool){\n        // setting the addresss of the nft owner to check the mapping\n        // of the address from tokenOwner at the tokenId;\n        address owner = _tokenOwner[tokenId];\n        // return truthiness\n        return owner != address(0);\n    }\n\n    function _mint(address _to, uint _tokenId) internal virtual {\n        // requires that the address isn't zero\n        require(_to != address(0), 'ERC721: minting to the zero address');\n        // requires that the token does not already exist\n        require(!_exists(_tokenId), 'ERC721: token already minted');\n        // adding the new address with a token id for minting\n        _tokenOwner[_tokenId] = _to;\n        // Keeping track of each address that is minting and adding one to the count\n        _ownedTokensCount[_to] += 1;\n\n        emit Transfer(address(0), _to, _tokenId);\n    }\n\n    /// @notice Transfers the ownership of an NFT from one address to another address\n    /// @dev This works identically to the other function with an extra data parameter,\n    ///  except this function just sets data to \"\".\n    /// @param _from The current owner of the NFT\n    /// @param _to The new owner\n    /// @param _tokenId The NFT to transfer\n\n    function _transferFrom(address _from, address _to, uint256 _tokenId) internal {\n        require(_to != address(0), 'Error - ERC721 Transfer to the zero address');\n        require(_from == ownerOf(_tokenId), 'Error - ERC721 Trying to transfer a token the address does not own');\n        require(isApprovedOrOwner(msg.sender, _tokenId));\n\n        // Update Token Counts\n        _ownedTokensCount[_from] -= 1;\n        _ownedTokensCount[_to] += 1;\n\n        // Change token owner\n        _tokenOwner[_tokenId] = _to;\n\n        emit Transfer(_from, _to, _tokenId);\n    }\n\n    function transferFrom(address _from, address _to, uint256 _tokenId) public {\n        _transferFrom(_from, _to, _tokenId);\n    }\n\n    // 1. require that the person approving is the owner\n    // 2. approve an address to a token (tokenId)\n    // 3. require that we can't approve sending tokens of the owner to the current caller\n    // 4. update the map of the approval addresses\n    function approve(address _to, uint256 tokenId) public {\n        address owner = ownerOf(tokenId);\n        require(_to != owner, 'Error - approval to current owner');\n        require(msg.sender == owner, 'Current caller is not the owner of the token');\n\n        _tokenApprovals[tokenId] == _to;\n\n        emit Approval(owner, _to, tokenId);\n    }\n\n    // This is not a complete approval function\n    function isApprovedOrOwner(address spender, uint256 tokenId) internal view returns(bool) {\n        require(_exists(tokenId), 'token does not exist');\n        address owner = ownerOf(tokenId);\n        return(spender == owner);\n    }\n}",
  "sourcePath": "/Users/lucien/Documents/Projects/Web3/nft-market-place/src/contracts/ERC721.sol",
  "compiler": {
    "name": "solc",
    "version": "0.8.17+commit.8df45f5f.Emscripten.clang"
  },
  "schemaVersion": "3.4.9",
  "updatedAt": "2022-10-18T23:39:15.566Z",
  "devdoc": {
    "kind": "dev",
    "methods": {},
    "version": 1
  },
  "userdoc": {
    "kind": "user",
    "methods": {},
    "version": 1
  }
}