{
  "contractName": "KryptoBird",
  "abi": [
    {
      "inputs": [],
      "stateMutability": "nonpayable",
      "type": "constructor"
    },
    {
      "anonymous": false,
      "inputs": [
        {
          "indexed": true,
          "internalType": "address",
          "name": "owner",
          "type": "address"
        },
        {
          "indexed": true,
          "internalType": "address",
          "name": "approved",
          "type": "address"
        },
        {
          "indexed": true,
          "internalType": "uint256",
          "name": "tokenId",
          "type": "uint256"
        }
      ],
      "name": "Approval",
      "type": "event"
    },
    {
      "anonymous": false,
      "inputs": [
        {
          "indexed": true,
          "internalType": "address",
          "name": "from",
          "type": "address"
        },
        {
          "indexed": true,
          "internalType": "address",
          "name": "to",
          "type": "address"
        },
        {
          "indexed": true,
          "internalType": "uint256",
          "name": "tokenId",
          "type": "uint256"
        }
      ],
      "name": "Transfer",
      "type": "event"
    },
    {
      "inputs": [
        {
          "internalType": "address",
          "name": "_to",
          "type": "address"
        },
        {
          "internalType": "uint256",
          "name": "tokenId",
          "type": "uint256"
        }
      ],
      "name": "approve",
      "outputs": [],
      "stateMutability": "nonpayable",
      "type": "function"
    },
    {
      "inputs": [
        {
          "internalType": "address",
          "name": "_owner",
          "type": "address"
        }
      ],
      "name": "balanceOf",
      "outputs": [
        {
          "internalType": "uint256",
          "name": "",
          "type": "uint256"
        }
      ],
      "stateMutability": "view",
      "type": "function"
    },
    {
      "inputs": [
        {
          "internalType": "uint256",
          "name": "",
          "type": "uint256"
        }
      ],
      "name": "kryptoBirdz",
      "outputs": [
        {
          "internalType": "string",
          "name": "",
          "type": "string"
        }
      ],
      "stateMutability": "view",
      "type": "function"
    },
    {
      "inputs": [],
      "name": "name",
      "outputs": [
        {
          "internalType": "string",
          "name": "",
          "type": "string"
        }
      ],
      "stateMutability": "view",
      "type": "function"
    },
    {
      "inputs": [
        {
          "internalType": "uint256",
          "name": "_tokenId",
          "type": "uint256"
        }
      ],
      "name": "ownerOf",
      "outputs": [
        {
          "internalType": "address",
          "name": "",
          "type": "address"
        }
      ],
      "stateMutability": "view",
      "type": "function"
    },
    {
      "inputs": [],
      "name": "symbol",
      "outputs": [
        {
          "internalType": "string",
          "name": "",
          "type": "string"
        }
      ],
      "stateMutability": "view",
      "type": "function"
    },
    {
      "inputs": [
        {
          "internalType": "uint256",
          "name": "_index",
          "type": "uint256"
        }
      ],
      "name": "tokenByIndex",
      "outputs": [
        {
          "internalType": "uint256",
          "name": "",
          "type": "uint256"
        }
      ],
      "stateMutability": "view",
      "type": "function"
    },
    {
      "inputs": [
        {
          "internalType": "address",
          "name": "_owner",
          "type": "address"
        },
        {
          "internalType": "uint256",
          "name": "_index",
          "type": "uint256"
        }
      ],
      "name": "tokenOfOwnerByIndex",
      "outputs": [
        {
          "internalType": "uint256",
          "name": "",
          "type": "uint256"
        }
      ],
      "stateMutability": "view",
      "type": "function"
    },
    {
      "inputs": [],
      "name": "totalSupply",
      "outputs": [
        {
          "internalType": "uint256",
          "name": "",
          "type": "uint256"
        }
      ],
      "stateMutability": "view",
      "type": "function"
    },
    {
      "inputs": [
        {
          "internalType": "address",
          "name": "_from",
          "type": "address"
        },
        {
          "internalType": "address",
          "name": "_to",
          "type": "address"
        },
        {
          "internalType": "uint256",
          "name": "_tokenId",
          "type": "uint256"
        }
      ],
      "name": "transferFrom",
      "outputs": [],
      "stateMutability": "nonpayable",
      "type": "function"
    },
    {
      "inputs": [
        {
          "internalType": "string",
          "name": "_kryptoBird",
          "type": "string"
        }
      ],
      "name": "mint",
      "outputs": [],
      "stateMutability": "nonpayable",
      "type": "function"
    }
  ],
  "bytecode": "0x60806040523480156200001157600080fd5b506040518060400160405280600a81526020017f4b727970746f42697264000000000000000000000000000000000000000000008152506040518060400160405280600681526020017f4b424952445a00000000000000000000000000000000000000000000000000008152508181816000908162000091919062000328565b508060019081620000a3919062000328565b50505050506200040f565b600081519050919050565b7f4e487b7100000000000000000000000000000000000000000000000000000000600052604160045260246000fd5b7f4e487b7100000000000000000000000000000000000000000000000000000000600052602260045260246000fd5b600060028204905060018216806200013057607f821691505b602082108103620001465762000145620000e8565b5b50919050565b60008190508160005260206000209050919050565b60006020601f8301049050919050565b600082821b905092915050565b600060088302620001b07fffffffffffffffffffffffffffffffffffffffffffffffffffffffffffffffff8262000171565b620001bc868362000171565b95508019841693508086168417925050509392505050565b6000819050919050565b6000819050919050565b60006200020962000203620001fd84620001d4565b620001de565b620001d4565b9050919050565b6000819050919050565b6200022583620001e8565b6200023d620002348262000210565b8484546200017e565b825550505050565b600090565b6200025462000245565b620002618184846200021a565b505050565b5b8181101562000289576200027d6000826200024a565b60018101905062000267565b5050565b601f821115620002d857620002a2816200014c565b620002ad8462000161565b81016020851015620002bd578190505b620002d5620002cc8562000161565b83018262000266565b50505b505050565b600082821c905092915050565b6000620002fd60001984600802620002dd565b1980831691505092915050565b6000620003188383620002ea565b9150826002028217905092915050565b6200033382620000ae565b67ffffffffffffffff8111156200034f576200034e620000b9565b5b6200035b825462000117565b620003688282856200028d565b600060209050601f831160018114620003a057600084156200038b578287015190505b6200039785826200030a565b86555062000407565b601f198416620003b0866200014c565b60005b82811015620003da57848901518255600182019150602085019450602081019050620003b3565b86831015620003fa5784890151620003f6601f891682620002ea565b8355505b6001600288020188555050505b505050505050565b611d6f806200041f6000396000f3fe608060405234801561001057600080fd5b50600436106100a95760003560e01c80634f6ccce7116100715780634f6ccce7146101525780636352211e1461018257806370a08231146101b257806393ab6e56146101e257806395d89b4114610212578063d85d3d2714610230576100a9565b806306fdde03146100ae578063095ea7b3146100cc57806318160ddd146100e857806323b872dd146101065780632f745c5914610122575b600080fd5b6100b661024c565b6040516100c3919061100b565b60405180910390f35b6100e660048036038101906100e191906110d5565b6102de565b005b6100f061045e565b6040516100fd9190611124565b60405180910390f35b610120600480360381019061011b919061113f565b61046b565b005b61013c600480360381019061013791906110d5565b61047b565b6040516101499190611124565b60405180910390f35b61016c60048036038101906101679190611192565b61052b565b6040516101799190611124565b60405180910390f35b61019c60048036038101906101979190611192565b610591565b6040516101a991906111ce565b60405180910390f35b6101cc60048036038101906101c791906111e9565b610642565b6040516101d99190611124565b60405180910390f35b6101fc60048036038101906101f79190611192565b6106f9565b604051610209919061100b565b60405180910390f35b61021a6107a5565b604051610227919061100b565b60405180910390f35b61024a6004803603810190610245919061134b565b610837565b005b60606000805461025b906113c3565b80601f0160208091040260200160405190810160405280929190818152602001828054610287906113c3565b80156102d45780601f106102a9576101008083540402835291602001916102d4565b820191906000526020600020905b8154815290600101906020018083116102b757829003601f168201915b5050505050905090565b60006102e982610591565b90508073ffffffffffffffffffffffffffffffffffffffff168373ffffffffffffffffffffffffffffffffffffffff1603610359576040517f08c379a000000000000000000000000000000000000000000000000000000000815260040161035090611466565b60405180910390fd5b8073ffffffffffffffffffffffffffffffffffffffff163373ffffffffffffffffffffffffffffffffffffffff16146103c7576040517f08c379a00000000000000000000000000000000000000000000000000000000081526004016103be906114f8565b60405180910390fd5b8273ffffffffffffffffffffffffffffffffffffffff166004600084815260200190815260200160002060009054906101000a90505050818373ffffffffffffffffffffffffffffffffffffffff168273ffffffffffffffffffffffffffffffffffffffff167f8c5be1e5ebec7d5bd14f71427d1e84f3dd0314c0f7b2291e5b200ac8c7c3b92560405160405180910390a4505050565b6000600580549050905090565b610476838383610933565b505050565b600061048683610642565b82106104c7576040517f08c379a00000000000000000000000000000000000000000000000000000000081526004016104be90611564565b60405180910390fd5b600760008473ffffffffffffffffffffffffffffffffffffffff1673ffffffffffffffffffffffffffffffffffffffff168152602001908152602001600020828154811061051857610517611584565b5b9060005260206000200154905092915050565b600061053561045e565b8210610576576040517f08c379a000000000000000000000000000000000000000000000000000000000815260040161056d906115ff565b60405180910390fd5b60066000838152602001908152602001600020549050919050565b6000806002600084815260200190815260200160002060009054906101000a900473ffffffffffffffffffffffffffffffffffffffff169050600073ffffffffffffffffffffffffffffffffffffffff168173ffffffffffffffffffffffffffffffffffffffff1603610639576040517f08c379a000000000000000000000000000000000000000000000000000000000815260040161063090611691565b60405180910390fd5b80915050919050565b60008073ffffffffffffffffffffffffffffffffffffffff168273ffffffffffffffffffffffffffffffffffffffff16036106b2576040517f08c379a00000000000000000000000000000000000000000000000000000000081526004016106a990611691565b60405180910390fd5b600360008373ffffffffffffffffffffffffffffffffffffffff1673ffffffffffffffffffffffffffffffffffffffff168152602001908152602001600020549050919050565b6009818154811061070957600080fd5b906000526020600020016000915090508054610724906113c3565b80601f0160208091040260200160405190810160405280929190818152602001828054610750906113c3565b801561079d5780601f106107725761010080835404028352916020019161079d565b820191906000526020600020905b81548152906001019060200180831161078057829003601f168201915b505050505081565b6060600180546107b4906113c3565b80601f01602080910402602001604051908101604052809291908181526020018280546107e0906113c3565b801561082d5780601f106108025761010080835404028352916020019161082d565b820191906000526020600020905b81548152906001019060200180831161081057829003601f168201915b5050505050905090565b600a8160405161084791906116ed565b908152602001604051809103902060009054906101000a900460ff16156108a3576040517f08c379a000000000000000000000000000000000000000000000000000000000815260040161089a90611750565b60405180910390fd5b6009819080600181540180825580915050600190039060005260206000200160009091909190915090816108d7919061191c565b50600060016009805490506108ec9190611a1d565b90506108f83382610b8b565b6001600a8360405161090a91906116ed565b908152602001604051809103902060006101000a81548160ff0219169083151502179055505050565b600073ffffffffffffffffffffffffffffffffffffffff168273ffffffffffffffffffffffffffffffffffffffff16036109a2576040517f08c379a000000000000000000000000000000000000000000000000000000000815260040161099990611ac3565b60405180910390fd5b6109ab81610591565b73ffffffffffffffffffffffffffffffffffffffff168373ffffffffffffffffffffffffffffffffffffffff1614610a18576040517f08c379a0000000000000000000000000000000000000000000000000000000008152600401610a0f90611b7b565b60405180910390fd5b610a223382610bac565b610a2b57600080fd5b6001600360008573ffffffffffffffffffffffffffffffffffffffff1673ffffffffffffffffffffffffffffffffffffffff1681526020019081526020016000206000828254610a7b9190611a1d565b925050819055506001600360008473ffffffffffffffffffffffffffffffffffffffff1673ffffffffffffffffffffffffffffffffffffffff1681526020019081526020016000206000828254610ad29190611b9b565b92505081905550816002600083815260200190815260200160002060006101000a81548173ffffffffffffffffffffffffffffffffffffffff021916908373ffffffffffffffffffffffffffffffffffffffff160217905550808273ffffffffffffffffffffffffffffffffffffffff168473ffffffffffffffffffffffffffffffffffffffff167fddf252ad1be2c89b69c2b068fc378daa952ba7f163c4a11628f55a4df523b3ef60405160405180910390a4505050565b610b958282610c3b565b610b9e81610dfc565b610ba88282610e45565b5050565b6000610bb782610f09565b610bf6576040517f08c379a0000000000000000000000000000000000000000000000000000000008152600401610bed90611c1b565b60405180910390fd5b6000610c0183610591565b90508073ffffffffffffffffffffffffffffffffffffffff168473ffffffffffffffffffffffffffffffffffffffff161491505092915050565b600073ffffffffffffffffffffffffffffffffffffffff168273ffffffffffffffffffffffffffffffffffffffff1603610caa576040517f08c379a0000000000000000000000000000000000000000000000000000000008152600401610ca190611cad565b60405180910390fd5b610cb381610f09565b15610cf3576040517f08c379a0000000000000000000000000000000000000000000000000000000008152600401610cea90611d19565b60405180910390fd5b816002600083815260200190815260200160002060006101000a81548173ffffffffffffffffffffffffffffffffffffffff021916908373ffffffffffffffffffffffffffffffffffffffff1602179055506001600360008473ffffffffffffffffffffffffffffffffffffffff1673ffffffffffffffffffffffffffffffffffffffff1681526020019081526020016000206000828254610d959190611b9b565b92505081905550808273ffffffffffffffffffffffffffffffffffffffff16600073ffffffffffffffffffffffffffffffffffffffff167fddf252ad1be2c89b69c2b068fc378daa952ba7f163c4a11628f55a4df523b3ef60405160405180910390a45050565b6005805490506006600083815260200190815260200160002081905550600581908060018154018082558091505060019003906000526020600020016000909190919091505550565b600760008373ffffffffffffffffffffffffffffffffffffffff1673ffffffffffffffffffffffffffffffffffffffff168152602001908152602001600020805490506008600083815260200190815260200160002081905550600760008373ffffffffffffffffffffffffffffffffffffffff1673ffffffffffffffffffffffffffffffffffffffff1681526020019081526020016000208190806001815401808255809150506001900390600052602060002001600090919091909150555050565b6000806002600084815260200190815260200160002060009054906101000a900473ffffffffffffffffffffffffffffffffffffffff169050600073ffffffffffffffffffffffffffffffffffffffff168173ffffffffffffffffffffffffffffffffffffffff161415915050919050565b600081519050919050565b600082825260208201905092915050565b60005b83811015610fb5578082015181840152602081019050610f9a565b60008484015250505050565b6000601f19601f8301169050919050565b6000610fdd82610f7b565b610fe78185610f86565b9350610ff7818560208601610f97565b61100081610fc1565b840191505092915050565b600060208201905081810360008301526110258184610fd2565b905092915050565b6000604051905090565b600080fd5b600080fd5b600073ffffffffffffffffffffffffffffffffffffffff82169050919050565b600061106c82611041565b9050919050565b61107c81611061565b811461108757600080fd5b50565b60008135905061109981611073565b92915050565b6000819050919050565b6110b28161109f565b81146110bd57600080fd5b50565b6000813590506110cf816110a9565b92915050565b600080604083850312156110ec576110eb611037565b5b60006110fa8582860161108a565b925050602061110b858286016110c0565b9150509250929050565b61111e8161109f565b82525050565b60006020820190506111396000830184611115565b92915050565b60008060006060848603121561115857611157611037565b5b60006111668682870161108a565b93505060206111778682870161108a565b9250506040611188868287016110c0565b9150509250925092565b6000602082840312156111a8576111a7611037565b5b60006111b6848285016110c0565b91505092915050565b6111c881611061565b82525050565b60006020820190506111e360008301846111bf565b92915050565b6000602082840312156111ff576111fe611037565b5b600061120d8482850161108a565b91505092915050565b600080fd5b600080fd5b7f4e487b7100000000000000000000000000000000000000000000000000000000600052604160045260246000fd5b61125882610fc1565b810181811067ffffffffffffffff8211171561127757611276611220565b5b80604052505050565b600061128a61102d565b9050611296828261124f565b919050565b600067ffffffffffffffff8211156112b6576112b5611220565b5b6112bf82610fc1565b9050602081019050919050565b82818337600083830152505050565b60006112ee6112e98461129b565b611280565b90508281526020810184848401111561130a5761130961121b565b5b6113158482856112cc565b509392505050565b600082601f83011261133257611331611216565b5b81356113428482602086016112db565b91505092915050565b60006020828403121561136157611360611037565b5b600082013567ffffffffffffffff81111561137f5761137e61103c565b5b61138b8482850161131d565b91505092915050565b7f4e487b7100000000000000000000000000000000000000000000000000000000600052602260045260246000fd5b600060028204905060018216806113db57607f821691505b6020821081036113ee576113ed611394565b5b50919050565b7f4572726f72202d20617070726f76616c20746f2063757272656e74206f776e6560008201527f7200000000000000000000000000000000000000000000000000000000000000602082015250565b6000611450602183610f86565b915061145b826113f4565b604082019050919050565b6000602082019050818103600083015261147f81611443565b9050919050565b7f43757272656e742063616c6c6572206973206e6f7420746865206f776e65722060008201527f6f662074686520746f6b656e0000000000000000000000000000000000000000602082015250565b60006114e2602c83610f86565b91506114ed82611486565b604082019050919050565b60006020820190508181036000830152611511816114d5565b9050919050565b7f6f776e657220696e646578206973206f7574206f6620626f756e647300000000600082015250565b600061154e601c83610f86565b915061155982611518565b602082019050919050565b6000602082019050818103600083015261157d81611541565b9050919050565b7f4e487b7100000000000000000000000000000000000000000000000000000000600052603260045260246000fd5b7f676c6f62616c20696e646578206973206f7574206f6620626f756e6473000000600082015250565b60006115e9601d83610f86565b91506115f4826115b3565b602082019050919050565b60006020820190508181036000830152611618816115dc565b9050919050565b7f4552433732313a204f776e657220717565727920666f72206e6f6e2d6578697360008201527f74616e7420746f6b656e00000000000000000000000000000000000000000000602082015250565b600061167b602a83610f86565b91506116868261161f565b604082019050919050565b600060208201905081810360008301526116aa8161166e565b9050919050565b600081905092915050565b60006116c782610f7b565b6116d181856116b1565b93506116e1818560208601610f97565b80840191505092915050565b60006116f982846116bc565b915081905092915050565b7f4572726f72206b727970746f4269726420616c72656164792065786973747300600082015250565b600061173a601f83610f86565b915061174582611704565b602082019050919050565b600060208201905081810360008301526117698161172d565b9050919050565b60008190508160005260206000209050919050565b60006020601f8301049050919050565b600082821b905092915050565b6000600883026117d27fffffffffffffffffffffffffffffffffffffffffffffffffffffffffffffffff82611795565b6117dc8683611795565b95508019841693508086168417925050509392505050565b6000819050919050565b600061181961181461180f8461109f565b6117f4565b61109f565b9050919050565b6000819050919050565b611833836117fe565b61184761183f82611820565b8484546117a2565b825550505050565b600090565b61185c61184f565b61186781848461182a565b505050565b5b8181101561188b57611880600082611854565b60018101905061186d565b5050565b601f8211156118d0576118a181611770565b6118aa84611785565b810160208510156118b9578190505b6118cd6118c585611785565b83018261186c565b50505b505050565b600082821c905092915050565b60006118f3600019846008026118d5565b1980831691505092915050565b600061190c83836118e2565b9150826002028217905092915050565b61192582610f7b565b67ffffffffffffffff81111561193e5761193d611220565b5b61194882546113c3565b61195382828561188f565b600060209050601f8311600181146119865760008415611974578287015190505b61197e8582611900565b8655506119e6565b601f19841661199486611770565b60005b828110156119bc57848901518255600182019150602085019450602081019050611997565b868310156119d957848901516119d5601f8916826118e2565b8355505b6001600288020188555050505b505050505050565b7f4e487b7100000000000000000000000000000000000000000000000000000000600052601160045260246000fd5b6000611a288261109f565b9150611a338361109f565b9250828203905081811115611a4b57611a4a6119ee565b5b92915050565b7f4572726f72202d20455243373231205472616e7366657220746f20746865207a60008201527f65726f2061646472657373000000000000000000000000000000000000000000602082015250565b6000611aad602b83610f86565b9150611ab882611a51565b604082019050919050565b60006020820190508181036000830152611adc81611aa0565b9050919050565b7f4572726f72202d2045524337323120547279696e6720746f207472616e73666560008201527f72206120746f6b656e20746865206164647265737320646f6573206e6f74206f60208201527f776e000000000000000000000000000000000000000000000000000000000000604082015250565b6000611b65604283610f86565b9150611b7082611ae3565b606082019050919050565b60006020820190508181036000830152611b9481611b58565b9050919050565b6000611ba68261109f565b9150611bb18361109f565b9250828201905080821115611bc957611bc86119ee565b5b92915050565b7f746f6b656e20646f6573206e6f74206578697374000000000000000000000000600082015250565b6000611c05601483610f86565b9150611c1082611bcf565b602082019050919050565b60006020820190508181036000830152611c3481611bf8565b9050919050565b7f4552433732313a206d696e74696e6720746f20746865207a65726f206164647260008201527f6573730000000000000000000000000000000000000000000000000000000000602082015250565b6000611c97602383610f86565b9150611ca282611c3b565b604082019050919050565b60006020820190508181036000830152611cc681611c8a565b9050919050565b7f4552433732313a20746f6b656e20616c7265616479206d696e74656400000000600082015250565b6000611d03601c83610f86565b9150611d0e82611ccd565b602082019050919050565b60006020820190508181036000830152611d3281611cf6565b905091905056fea2646970667358221220ec1565b66ebf4450e0aea09090f5c7db5b5bea2300d694153dc9a10b0cf68ed564736f6c63430008110033",
  "immutableReferences": {},
  "source": "// SPDX-License-Identifier: MIT\npragma solidity ^0.8.0;\n\nimport './ERC721Connector.sol';\n\ncontract KryptoBird is ERC721Connector {\n\n    // array to store our nfts\n    string[] public kryptoBirdz;\n\n    mapping(string => bool) _kryptoBirdzExists;\n\n    function mint(string memory _kryptoBird) public {\n        require(!_kryptoBirdzExists[_kryptoBird], \"Error kryptoBird already exists\");\n\n        // this is deprecated : uint _id = KryptoBirdz.push(_kryptoBird);\n        // push no longer returns the length but a reference to the added element;\n        kryptoBirdz.push(_kryptoBird);\n        uint _id = kryptoBirdz.length - 1;\n        _mint(msg.sender, _id);\n\n        _kryptoBirdzExists[_kryptoBird] =  true;\n\n    }\n\n    constructor () ERC721Connector('KryptoBird', 'KBIRDZ') {\n        {}\n    }\n\n}\n\n\n\n",
  "sourcePath": "/Users/lucien/Documents/Projects/Web3/nft-market-place/src/contracts/KryptoBirdz.sol",
  "compiler": {
    "name": "solc",
    "version": "0.8.17+commit.8df45f5f.Emscripten.clang"
  },
  "schemaVersion": "3.4.9",
  "updatedAt": "2022-10-18T23:39:15.589Z",
  "devdoc": {
    "kind": "dev",
    "methods": {},
    "version": 1
  },
  "userdoc": {
    "kind": "user",
    "methods": {},
    "version": 1
  }
}